:020000040800F2
:10000000504E00200101000857190008871700080A
:100010005519000801040008E71B00080000000053
:10002000000000000000000000000000271A000887
:100030000304000800000000251A0008291A00081F
:100040001B0100081B0100081B0100081B01000820
:100050001B0100081B0100081B0100081B01000810
:100060001B0100081B0100081B0100081B01000800
:100070001B0100081B0100081B0100081B010008F0
:100080001B0100081B0100081B0100081B010008E0
:100090001B0100081B0100081B0100081B010008D0
:1000A0001B0100081B0100081B0100081B010008C0
:1000B000F91A00081B010008051B00081B010008B5
:1000C0001B0100081B0100081B0100081B010008A0
:1000D0001B0100081B0100081B0100081B01000890
:1000E0001B0100081B0100081B010008DFF80CD0F1
:1000F00000F006F900480047C51C0008504E0020DB
:100100000648804706480047FEE7FEE7FEE7FEE7B1
:10011000FEE7FEE7FEE7FEE7FEE7FEE7B11A0008AE
:10012000ED000008202A04DB203A21FA02F0002129
:10013000704721FA02F3D040C2F1200291400843F7
:10014000194670470EB5C10F80EAE0700844CA072F
:10015000002140F233438DE80E000A460B4600F0C2
:1001600030F803B000BD70B5C1F30A5201F000458C
:100170000024C1F3130140F2FF3341F480119A428D
:1001800001DA002070BD40F233439A42A2F23342BA
:1001900003DC5242FFF7C6FF00E090402C43F1D051
:1001A000404270BD10B5141E73F1000408DA401C03
:1001B00041F1000192185B411A4301D120F0010086
:1001C00010BD2DE9F04D92469B4611B1B1FA81F276
:1001D00002E0B0FA80F22032904600F0A3F8044624
:1001E0000F4640EA0A0041EA0B0153465A460843CB
:1001F00013D0114653EA010019D0C8F1400250460D
:10020000FFF790FF05460E4650465946424600F01D
:1002100089F8084305D0012004E020463946BDE8AE
:10022000F08D0020054346EAE0762C4337430A98D8
:100230006305E40AA0EB08000022FD0A44EA4754E3
:100240000A3002D500200146E9E70105101969418D
:10025000DDE9084500196941BDE8F04DA2E72DE947
:10026000F04D00231A461B1A8A4103DB0020014689
:10027000BDE8F08DC1F30A52C1F3130141F48015BA
:100280004FF0000BD10702D100186D41521E00271C
:10029000044640F2FF11384601EB620A3E468046B2
:1002A000024600204FF48011FFF73CFFC219714154
:1002B000BB1846EB0100B4EB030C75EB000C04D348
:1002C000E41A65EB000517460E46241908F10100F3
:1002D0006D4180463428E3DDF91946EB0600091B21
:1002E000A84103D24FF0FF32134601E0002213462B
:1002F0001BEB070046EB0A51BDE8F04DFFF752BF7C
:10030000064C074D06E0E06840F0010394E8070062
:1003100098471034AC42F6D3FFF7ECFEBC49000816
:10032000DC490008202A04DB203A00FA02F1002010
:1003300070479140C2F1200320FA03F31943904023
:100340007047000070B5044600688168C943C9075A
:100350001CD1816821F00101816000F0BDFB0546E0
:100360000FE000BF00F0B8FB401B022809D9A06ACB
:1003700040F01000A062E06A40F00100E06201205D
:1003800070BD20688068C043C007EBD0002070BDFE
:10039000F8B500260446009600688168C943C9077D
:1003A00028D0816841F00101816013481349006839
:1003B000B0FBF1F000E0401E00900028FBD100F0FF
:1003C0008BFB054611E000BF00F086FB401B0228B6
:1003D0000BD9A06A40F01000A062E06A40F0010072
:1003E000E06284F824600120F8BD20688068C04382
:1003F000C007E9D10020F8BD0000002040420F00F6
:10040000FEE770472DE9FC4F022001234FF0000961
:10041000019001F015FD0020009000213FE0264AE8
:10042000084612F909B0A2F2FF1212F909A030E051
:10043000DFF888E00EF500620EF5006652F8204005
:10044000C2185EF820505EF822C056F82270E046CE
:100450000CFB0BFC0AFB17CC64269CFBF6F607FB97
:100460000BF708FB0A7C64279CFBF7F705EB0608F3
:10047000AE1B4EF820804EF822600EF50065E6199E
:1004800045F82060E51B0EF5006444F82250019AFF
:100490001044B0F5007FCBDB09F10109491C9942FA
:1004A000BDDB01985B00400001900098401C00906B
:1004B0000928B2DBBDE8FC8FBB2F000810390020F3
:1004C000F8B50024009490F824202546012A12D083
:1004D000012280F824204A681F23072A0DD20668CB
:1004E000776B521E02EB820293409F430B6893404E
:1004F0001F43776319E00220F8BD06680D2A0AD26F
:10050000376BD21F02EB820293409F430B689340EC
:100510001F43376309E0F76A0D3A02EB820293400A
:100520009F430B6893401F43F7620A6807230668DE
:100530000A2A0AD3F7680A3A02EB420293409F4321
:100540008B6893401F43F76008E0376902EB420273
:1005500093409F438B6893401F4337610A68102A7A
:1005600001D0112A20D1124B02689A4217D1936808
:100570001B0219D4936843F400039360096810299F
:1005800012D10C490C4A0968B1FBF2F101EB81016F
:10059000490000E0491E00910029FBD104E0816A76
:1005A00041F020018162012480F824502046F8BDEA
:1005B000002401400000002040420F000068C06C91
:1005C000704700002DE9F0414FF0000704003D4660
:1005D0007ED0A06A002628B9E66284F8246020460E
:1005E00000F07EF82046FFF7ADFEA16AC90600D4F0
:1005F00020B1A06A40F01000A06269E0A16A21F475
:10060000885141F00201A1626268E169E3680A432E
:1006100047EA43010A43A1684FF48077B94209D001
:10062000012907D05FF00001D4F814C0BCF1010F1C
:1006300002D00AE03946F7E7F3B1A36A43F020039A
:10064000A362E36A43F00103E3622368D3F804C0C2
:100650002CF4694C4CEA010CC3F804C021688B6887
:10066000DFF870C003EA0C0313438B60A168B94242
:100670000BD0012909D00CE0DFF85CC0A3690CEBBA
:1006800043330B4343F40061DFE7218A0D05A5F5F1
:1006900080152168CB6A23F470032B43CB62216859
:1006A00089680E4B1940914208D1E662A16A21F097
:1006B000020141F00101A162BDE8F081A06A20F0D1
:1006C000020040F01000A062E06A40F00100E06229
:1006D0000120F1E7FDF7E1FF00E0FFFFFE0E1FFF45
:1006E00000B500680B4985B0884210D10A4881697D
:1006F00041F4007181618069694600F400700490E2
:100700000120009003200190044800F001F905B099
:1007100000BD00000024014000100240000801401C
:100720002DE9F84300260D460446009600F0D4F962
:10073000804620688168C90508D5A06A40F020007D
:10074000A06284F824600120BDE8F8834168C905EF
:1007500003D4C06A10F4700F26D0022000F072FAA1
:1007600038490968B1FBF0F72068036936490B4244
:100770004FEA61014FEAA1121BD1C3684FEA611C25
:1007800013EA0C0F15D103690B4221D1C068104246
:100790001ED114201FE0681C06D045B300F09CF960
:1007A000A0EB0800A84222D8206800688007F2D594
:1007B0002AE003690B4202D1C168114206D00269E6
:1007C00022490A4206D1C068084203D1542002E0FF
:1007D000292000E0FC204743009813E0681C0ED05D
:1007E0002DB100F079F9A0EB0800A84207D9A06A62
:1007F00040F00400A06284F824600320A4E700987D
:10080000401C0090B842E9D321686FF012000860E4
:10081000A06A40F40070A06220688068C0F3424083
:1008200007280CD1E06850B9A06A20F48070A0625B
:10083000A06AC00403D4A06A40F00100A0620020B6
:1008400082E70000000000202449922449922400FD
:1008500070B5044690F8240001280DD0012084F8DA
:1008600024002046FFF794FD02004FF0000005D061
:1008700084F82400104670BD022070BDA16A40F2C9
:100880000123994341F48071A1621F4D23681F49E0
:10089000AB4218D10E6816F4702F14D0A66A46F435
:1008A0008016A6620E68760505D5A66A26F400565F
:1008B00046F48056A662A66AF6040AD5E66A26F0D1
:1008C0000606E66206E0A66A26F48016A6625E6860
:1008D000E9E7E06284F824006FF002001860206805
:1008E0008368C3F34243072B05D1A84208D10968A6
:1008F00011F4702F04D0816841F480118160B9E750
:10090000816841F4A001F9E7002801400424014076
:100910002DE9F84FDFF890A100220AF1040B1446EC
:1009200001274FF00F090BF1040E00BF0B6807FA07
:1009300004F52B40AB4274D1DFF870C14E68A6EBD2
:100940000C0866452BD00DDC032E34D005DC36B305
:10095000012E19D0022E2FD11BE0112E16D0122EEF
:100960002AD119E0B8F5881F19D006DCB8F5803F08
:1009700015D0B8F5801F1FD111E0B8F5001F0ED0BB
:10098000B8F5041F18D10AE0CA6815E0CA68121D3C
:1009900012E0CA6808320FE0CA680C320CE08A68BC
:1009A0002AB1012A4FF0080203D0456104E0042275
:1009B00002E0056100E00022FF2B01D8064601E0BD
:1009C00000F104064FEA840501D9A5F12005D6F807
:1009D00000C009FA05F82CEA080C02FA05F54CEA01
:1009E000050CC6F800C04D68ED0057D5304DAE6916
:1009F00046F00106AE61AD6924F0030605F001057D
:100A000000952C4D06EB050CDCF80850A6074FEAC4
:100A1000167809FA08F6B543274EB04202D10026EF
:100A200010E03BE0254EB04201D101260AE0244E01
:100A3000B04201D1022605E0224EB04201D1032688
:100A400000E0042606FA08F62E43CCF808604D684C
:100A5000DAF80060ED03554601D51E4300E09E43E1
:100A60002E604D68DBF80060AD035D4601D51E4386
:100A700000E09E432E604D68DEF80060ED02754692
:100A800001D51E4300E09E432E604D68AD020E4D21
:100A90002E6801D51E4300E09E432E60641C102C7E
:100AA000FFF444AFBDE8F88F0004014000001110CE
:100AB000001002400000014000080140000C01400D
:100AC00000100140001401400C0401400AB1016112
:100AD00070470904FBE70000014880687047000088
:100AE0000400002002488168027811448160704748
:100AF00004000020074810B5016841F010010160B2
:100B0000032000F08DF8002000F006F800F024F833
:100B1000002010BD0020024070B50D4D04464FF47A
:100B20007A712878B1FBF0F00A490968B1FBF0F05E
:100B300000F0E7FB48B9102C07D200222146501ED6
:100B400000F04EF800206C6070BD012070BD000008
:100B500004000020000000201A4808B5816941F017
:100B600001018161806900F001000090032000F024
:100B700057F8002211466FF00B0000F031F8002208
:100B800011466FF00A0000F02BF8002211466FF0BA
:100B9000090000F025F800221146501F00F020F84F
:100BA00000221146101F00F01BF800221146901E73
:100BB00000F016F80022BDE808401146501E00F073
:100BC0000FB800000010024000F01F020121914008
:100BD0004009800000F1E020C0F8001170470000DB
:100BE000F0B40E4B1B680C46C3F30223C3F1070598
:100BF000042D00D90425191D072901D2002300E086
:100C0000DB1E012606FA05F1491E214099409E404F
:100C1000761E16403143F0BC00F09EBE0CED00E0A5
:100C2000064900F0070208684FF6FF03184040EA43
:100C30000220034A10430860704700000CED00E0FA
:100C40000000FA0510B529A401461DCC86B08DE838
:100C50001D002AA02A4C006804900020012923D0FE
:100C600002293AD010291DD161682268D20119D514
:100C7000C1F38342C9031DF8020009D5616804AAC3
:100C8000C1F34041515C1F4AB2FBF1F1484301E01E
:100C90001D4948436168490204D440005FF00301E4
:100CA000B0FBF1F006B010BD226AC2F301210129A8
:100CB00003D1920701D5C803F4E7022905D1626A7E
:100CC000920702D549F64040ECE70329EAD12168B2
:100CD0008903E7D54FF22440E4E700F03DF961686D
:100CE000C1F38131491C4900DAE700000203040521
:100CF000060708090A0B0C0D0E0F10100102000068
:100D00000010024000127A0000093D002DE9F8436E
:100D100005460078354CC00754D0E0690026C00075
:100D200008D4E06940F08050E061E069012600F0FD
:100D3000805000902E480168C90512D40168804691
:100D400041F480710160FFF7C7FE074605E000BF70
:100D5000FFF7C2FEC01B642823D8D8F80000C005E6
:100D6000F6D5206A10F4407021D0A98801F44071B2
:100D700081421CD0206A1F49012220F440700A6081
:100D800000220A602062C00711D0FFF7A5FE0746C7
:100D900041F2883808E000BFFFF79EFEC11B4145C5
:100DA00002D90320BDE8F883206A8007F4D5206AC1
:100DB000696820F44070084320621EB1E06920F0A9
:100DC0008050E0612878800705D56068A96820F424
:100DD0004040084360602878C00605D56068E9682F
:100DE00020F48000084360600020DBE70010024030
:100DF00000700040400442422DE9F047DFF83C819A
:100E000005460E46D8F8000000F00700B0420CD2AC
:100E1000D8F8001021F007013143C8F80010D8F8C5
:100E2000000000F00700B04263D12878444C8007EE
:100E300005D56068A96820F0F00008436060287854
:100E4000C00745D06868012816D02168022816D04E
:100E5000890700294DDA616821F0030101436160CF
:100E6000FFF73AFE6968074641F2883001290FD042
:100E70000229814619D027E021688903E9E7890121
:100E8000E7E700BFFFF728FEC11B494501D918E07D
:100E900081466068C0F381000128F3D118E000BFEB
:100EA000FFF71AFEC11B49450BD86068C0F38100EB
:100EB0000228F5D10CE000BFFFF70EFEC11B49452B
:100EC00002D90320BDE8F087606810F00C0FF3D161
:100ED000D8F80010404601F00701B1420BD9016873
:100EE00021F0070131430160006800F00700B042C3
:100EF00001D00120E6E72878400705D56068E96859
:100F000020F4E060084360602878000706D5606838
:100F1000296920F4605040EAC100606000F02CF8BC
:100F20006168084AC1F30311515CC8400649086072
:100F30000020FFF7F1FD0020C4E700000020024080
:100F400000100240902D00080000002001480068B9
:100F50007047000000000020044805490068496807
:100F6000044AC1F3C221515CC84070470000002010
:100F700000100240A02D000812A185B00FC98DE815
:100F80000F0014A0144A006804905168134801F03F
:100F90000C03042B10D0082B0ED1C1F38343C903DB
:100FA0001DF803000AD5516804AAC1F34041515C01
:100FB0000A4A5043B0FBF1F005B070470849484376
:100FC000FAE7000002030405060708090A0B0C0DE6
:100FD0000E0F1010010200000010024000127A00F3
:100FE00000093D002DE9F84F04460078B94DC007CF
:100FF00048D06868C0F38100012807D06868C0F352
:101000008100022809D16868C00306D528688003DA
:1010100038D5606800286FD034E06068B0F5803F54
:101020000BD010B1B0F5A02F11D0286820F480307B
:101030002860286820F4802002E0286840F480308E
:101040002860606888B1FFF747FD064609E0286818
:1010500040F480202860F0E7FFF73EFD801B642805
:1010600075D828688003F7D50CE0FFF735FD0646F4
:1010700005E000BFFFF730FD801B6428F0D828682A
:101080008003F7D42078944E80074FF001094FF089
:1010900000083BD5686810F00C0F07D06868C0F3F3
:1010A0008100022809D16868C00306D42868800737
:1010B00014D5206901281FD110E02069B0B1C6F80D
:1010C0000090FFF709FD074605E000BFFFF704FDAC
:1010D000C01B0228C4D828688007F7D52868616932
:1010E00020F0F80040EAC10028600FE0C6F8008058
:1010F000FFF7F2FC074606E0E9E000BFFFF7ECFC73
:10110000C01B022823D828688007F7D4207800075E
:101110002CD57248A169D9B1C0F80090FFF7DCFC6A
:10112000074604E0FFF7D8FCC01B02280FD8686A06
:101130008007F7D56A484FF4FA510068B0FBF1F028
:10114000009000BF0098411E0091FAD20EE080E0AE
:10115000C0F80080FFF7C0FC074604E0FFF7BCFCC6
:10116000C01B022875D8686A8007F7D4207840072A
:1011700060D5E8690027C00008D4E86940F08050D5
:10118000E861E869012700F0805000905548016847
:10119000C90513D40168834641F480710160FFF7EB
:1011A0009BFC824606E000BFFFF796FCA0EB0A001E
:1011B00064284ED8DBF80000C005F5D5E0680128AA
:1011C0000AD008B1052813D0286A20F0010028624F
:1011D000286A20F0040002E0286A40F0010028623A
:1011E000E06841F2883B98B1FFF776FC82460BE05D
:1011F000286A40F004002862EEE700BFFFF76CFCAD
:10120000A0EB0A0159455AD8286A8007F6D50CE0A8
:10121000FFF762FC824605E0FFF75EFCA0EB0A01E7
:1012200059454CD8286A8007F6D41FB1E86920F0E8
:101230008050E861E06988B36968C1F381010229DF
:1012400045D00228C6F8608004D0FFF745FC04466C
:1012500038E034E0FFF740FC074604E0FFF73CFCD1
:10126000C01B02282BD828688001F7D4206AB0F56B
:10127000803F05D16868A16820F4003008436860A9
:10128000D4E908010843696821F4741108436860CF
:10129000C6F86090FFF720FC044606E015E000BFAA
:1012A000FFF71AFC001B022809D828688001F7D52F
:1012B0000BE000BFFFF710FC001B022802D903203F
:1012C000BDE8F88F28688001F4D40020F8E70120F9
:1012D000F6E7000000100240000042428004424253
:1012E00000000020007000404FF0E0210428086951
:1012F00003D020F004000861704740F00400FAE7D2
:10130000704710B5401EB0F1807F01D3012010BDA1
:101310004FF0E02460610F21601700F01DFB0020FA
:10132000A06107202061002010BD10B5FFF7E8FF85
:1013300010BD7047704730B590F83C20012A20D08E
:10134000012280F83C20022380F83D3003685C686D
:1013500024F070045C6003685C680D682C435C607A
:1013600003689C6824F080049C6003689C6849685A
:101370000C439C6080F83D20002180F83C1008461A
:1013800030BD022030BD10B5040003D094F83D00FC
:1013900010B107E0012010BD002084F83C00204679
:1013A00000F00CF8022084F83D00211D206800F0B8
:1013B000AFFB012084F83D00002010BD08B5016896
:1013C0001948B1F1804F0BD0184A914217D1C16929
:1013D00041F00201C161C06900F00200009008BD47
:1013E000C16941F00101C161C069002200F0010042
:1013F000009011461C20FFF7F3FB1C2010E00C4A64
:101400009142ECD1C16941F00401C161C06900227F
:1014100000F00400009001211E20FFF7E1FB1E20D8
:10142000BDE80840FFF7D0BB0010024000040040B8
:1014300000080040022180F83D1001680A6842F06F
:1014400001020A60012180F83D1000207047016808
:10145000CA6842F00102CA600068016841F00101F7
:1014600001600020704770B5044690F83C000128E8
:1014700017D0012584F83C50022084F83D002068F4
:10148000826822F0770222F47F4282600868502846
:1014900037D00DDC202859D005DC88B3102841D185
:1014A00051E0022070BD302853D040283AD13FE0AF
:1014B00060282ED070280BD0B0F5805F03D0B0F537
:1014C000005F2FD110E02068816821F0070115E04E
:1014D000CB68D1E90121206800F050FB21688868C1
:1014E00040F0770088601DE0CB68D1E901212068D9
:1014F00000F044FB2068816841F48041816011E084
:101500001EE0CA684968206800F04AFB5021206844
:1015100006E0CA684968206800F053FB6021206833
:1015200000F036FB84F83D50002084F83C0070BD8C
:10153000CA684968206800F033FB40212068EFE763
:1015400000212068ECE710212068E9E720212068CD
:10155000E6E730212068E3E7704770B5044600688D
:1015600001694FF00005C943890715D4C168C94313
:10157000890711D4E91E0161012020772068806964
:101580008007204602D0FFF7E7FF04E000F098F85C
:10159000204600F096F8257720680169C94349077D
:1015A00017D4C168C943490713D46FF0040101611E
:1015B000022020772068806910F4407F204602D006
:1015C000FFF7CAFF04E000F07BF8204600F079F84E
:1015D000257720680169C943090716D4C168C94342
:1015E000090712D46FF008010161042020772068F8
:1015F000C0698007204602D0FFF7AEFF04E000F08C
:101600005FF8204600F05DF8257720680169C9433E
:10161000C90617D4C168C943C90613D46FF01001B5
:101620000161082020772068C06910F4407F2046BF
:1016300002D0FFF791FF04E000F042F8204600F0EE
:1016400040F8257720680169C943C90708D1C168F6
:10165000C943C90704D1891E0161204600F032F850
:1016600020680169C943090609D4C168C94309064C
:1016700005D46FF0800101612046FFF75AFE206813
:101680000169C943490609D4C168C943490605D45B
:101690006FF040010161204600F074F82068016994
:1016A000C94389060BD4C168C943890607D46FF0C2
:1016B000200101612046BDE87040FFF73BBE70BDD0
:1016C00070477047F0B50168B1F1804F0AD1264AE2
:1016D000002100BF52F821305B1E42F82130491C26
:1016E0008029F7DB0068214988423BD1214C204802
:1016F0001E492278283150F8220008601B49012039
:1017000014310860C01E091F086094F901101A4BBB
:10171000002003EB412303EB8212184B02251E1D10
:10172000175C1F603560401C4028F9DB144D4FF4F6
:1017300000602860C8B200F06DFA28152860000427
:101740002860400028602078401CC0B22070052826
:1017500008D1002020706178491C49B261701029BD
:1017600000D16070F0BD000010490020000800406A
:10177000A82D000810000020201800200C080140AF
:10178000100C01407047FEE73EB50F4800240D499C
:101790008460C46044610160012505614FF46021EB
:1017A0004460C161FEF70EFF00B1FEE7CDE90045E0
:1017B000694605480294FEF783FE002800D0FEE744
:1017C0003EBD000000240140203800202DE9F041FA
:1017D0001E4886B0816941F020018161816901F074
:1017E00020010491816941F004018161816901F066
:1017F00004010491816941F0080181618069144FFD
:1018000000F0080004900122FE213846FFF75EF93F
:10181000DFF8408047F60746012231464046FFF791
:1018200055F9FE200124CDE90004032569460395FE
:101830003846FFF76DF8CDE90064694640460395E8
:10184000FFF766F806B0BDE8F08100000010024026
:1018500000080140000C014010B5134886B04FF05D
:10186000804101604FF4FA410024C0E9011440F2C4
:10187000E731C0E903148461FFF785FD00B1FEE79D
:101880004FF48050009069460748FFF7ECFD00B127
:10189000FEE7049404A904480594FFF74CFD0028D2
:1018A00000D0FEE706B010BD5038002010B5134838
:1018B00086B01149016040210024C0E901141E21B5
:1018C000C0E903148461FFF75EFD00B1FEE74FF449
:1018D0008050009069460948FFF7C5FD00B1FEE75A
:1018E000049404A905480594FFF725FD002800D0BD
:1018F000FEE706B010BD0000000400409038002054
:1019000010B5134886B0114901604FF4906100246E
:10191000C0E901142121C0E903148461FFF733FDFC
:1019200000B1FEE74FF48050009069460848FFF789
:101930009AFD00B1FEE7049404A905480594FFF759
:10194000FAFC002800D0FEE706B010BD00080040F9
:10195000D0380020FEE770470907090E002806DA94
:1019600000F00F0000F1E02080F8141D704700F136
:10197000E02080F8001470472DE9F04FDFF8A0B0A8
:101980000025A9464FF0010A0BF5C05E00240BEBC1
:1019900085170EEB452800200AFA04F208EB8411A3
:1019A0003B1801F8009093F8006C164201D0042611
:1019B0000E5493F80068164203D00E5C46F00806F9
:1019C0000E543E5C164203D00E5C46F010060E54D8
:1019D00003F5805696F800C01CEA020F05D011F8F6
:1019E00000C04CF0200C01F800C093F80034134202
:1019F00003D00B5C43F040030B5496F800341342C1
:101A000003D00B5C43F080030B54401C4028C7DB21
:101A1000641C052CBFDB6D1C102DB7DBBDE8F08FFF
:101A2000200000207047704710B5FFF75BF8BDE855
:101A30001040FFF77ABC30B593B001210804CDE91E
:101A400000100025029502240491CDE907404FF4CF
:101A5000601009906846FFF7C5FA00B1FEE70AA9D1
:101A60000F2081E831004FF4A0600D900E9002210C
:101A70000AA8FFF7C1F900B1FEE74FF480401190CA
:101A80000F940FA8FFF742F900B1FEE7FFF75EFAE7
:101A90004FF47A71B0FBF1F0FFF733FC0420FFF74D
:101AA00023FC00221146501EFFF79AF813B030BDF8
:101AB0000D48016841F00101016041680B4A114085
:101AC000416001680A4A11400160016821F48021E7
:101AD0000160416821F4FE0141604FF41F01816003
:101AE0000449C00308607047001002400000FFF87E
:101AF000FFFFF6FE08ED00E00148FFF72EBD0000F5
:101B0000503800200148FFF728BD0000D0380020E1
:101B1000F0B50268164B174C174D4FF080479842AE
:101B200005D0B84203D0A04201D0A84203D122F090
:101B300070064A683243984205D0B84203D0A042AA
:101B400001D0A84203D122F44074CA68224322F093
:101B500080044A69224302608A68C2620A6882621B
:101B6000984201D10969016301214161F0BD000082
:101B7000002C0140000400400008004010B58468BB
:101B800042EA032224F47F440A432243826010BDC8
:101B9000826822F070020A4342F0070181607047B8
:101BA00010B5036A046A24F001040462846924F015
:101BB000F00444EA021423F00A020A438461026238
:101BC00010BD10B5036A23F0100303628369046A31
:101BD00023F4704343EA023224F0A00343EA0111E4
:101BE0008261016210BDFEE702E008C8121F08C151
:101BF000002AFAD170477047002001E001C1121F8E
:101C0000002AFBD1704700000149086070470000BE
:101C10001C0000202DE9F043294902220124550728
:101C20004B0616044F144FF480394FF4804C1028A3
:101C30001ED2DFE800F0080A0C0E1014181F24282A
:101C40002C3034383C400D601BE00D601DE00D6011
:101C50001FE00D6021E00D6023E00E6006E00D60E6
:101C600023E00E6009E00D6023E00A60C1F80090F7
:101C7000BDE8F0830D6020E00A600C60F8E7C1F871
:101C800000C00B60E9E7C1F800C00B60E9E7C1F8EC
:101C900000C00B60E9E7C1F800C00B60ECE7C1F8D9
:101CA00000C00F60D9E7C1F800C00F60D9E7C1F8E4
:101CB00000C00F60D9E7C1F800C00F60DCE700008A
:101CC000100C0140FEF716FFFFF7B5FEFFF77EFD93
:101CD000FFF7C2FDFFF758FDFFF712FEFFF7E6FD25
:101CE0005048FFF7A7FB4F484030FFF7B0FBFEF727
:101CF000F3FE4D49DFF82CB14C4D4FF000098A46F8
:101D00000BF1800BC1F80800FEF7E6FEDAF80810C8
:101D10005446401A282842D9FEF7DEFEA060DFF8BC
:101D2000108100204FF4FA66002158F8203019E0A5
:101D3000C1F11F023F4FD2B207EB821705EB8212AF
:101D400017F800C002F800C00744024497F800C822
:101D500082F800C807F5805702F580523F78491C89
:101D60001770C9B293FBF6F28A42E1DCCC46202917
:101D70000FD2C1F11F0205EB82173A184FF48053BE
:101D8000491C03F802C082F800C807F800C0C9B2B5
:101D9000EDE7401CC0B24028C6D3FFF7EDFD264852
:101DA00001681F29B0D124494F461431C1F8009071
:101DB000012101601B487038FEF74AFD194842F2C4
:101DC00010717038FEF7ACFC16487038FEF7F6FB61
:101DD0006168DFF86880A0F2FF704BF8210048F8D6
:101DE0002170491C5E466160B1F5007F8CD9676047
:101DF000FEF708FB0027012456F8241058F82400A9
:101E0000494300FB0010FEF79DF900F09BFFFEF731
:101E1000AAF946F82700641C7F1C822CECDB00F03A
:101E200059FF71E7903800201000002020000020AA
:101E300010490020BA310008100400401041002071
:101E4000FE4850F8041FD0F8FC230260C0F8FC13D1
:101E5000D0F8FC2141684260C0F8FC11D0F8FC25A4
:101E600081688260C0F8FC15D0F8FC20C168C260AF
:101E7000C0F8FC10D0F8FC2401690261C0F8FC1421
:101E8000D0F8FC2241694261C0F8FC12D0F8FC266F
:101E900081698261C0F8FC16C26FC169C261C16705
:101EA000D0F87C24016A0262C0F87C14D0F87C224D
:101EB000416A4262C0F87C12D0F87C26816A826254
:101EC000C0F87C16D0F87C21C16AC262C0F87C11CF
:101ED000D0F87C25016B0263C0F87C15D0F87C2318
:101EE000416B4263C0F87C13D0F87C27816B82631E
:101EF000C0F87C17D0F83C24016C0264C0F83C1494
:101F0000D0F83C22416C4264C0F83C12D0F83C2628
:101F1000816C8264C0F83C16D0F83C21C16CC2646C
:101F2000C0F83C11D0F83C25016D0265C0F83C15A5
:101F3000D0F83C23416D4265C0F83C13D0F83C27F3
:101F4000816D8265C0F83C17D0F8BC20C16DC265B8
:101F5000C0F8BC10D0F8BC24016E0266C0F8BC14F6
:101F6000D0F8BC22416E4266C0F8BC12D0F8BC2644
:101F7000816E8266C0F8BC16D0F8BC21C16EC26604
:101F8000C0F8BC11D0F8BC25016F0267C0F8BC15C1
:101F9000D0F8BC23416F4267C0F8BC13D0F8BC270F
:101FA000816F8267C0F8BC17D0F81C24D0F880106D
:101FB000C0F88020C0F81C14D0F81C22D0F884107F
:101FC000C0F88420C0F81C12D0F81C26D0F8881065
:101FD000C0F88820C0F81C16D0F81C21D0F88C104E
:101FE000C0F88C20C0F81C11D0F81C25D0F8901037
:101FF000C0F89020C0F81C15D0F81C23D0F894101D
:10200000C0F89420C0F81C13D0F81C27D0F8981002
:10201000C0F89820C0F81C17D0F89C24D0F8A01065
:10202000C0F8A020C0F89C14D0F89C22D0F8A410CE
:10203000C0F8A420C0F89C12D0F89C26D0F8A810B4
:10204000C0F8A820C0F89C16D0F89C21D0F8AC109D
:10205000C0F8AC20C0F89C11D0F89C25D0F8B01086
:10206000C0F8B020C0F89C15D0F89C23D0F8B4106C
:10207000C0F8B420C0F89C13D0F89C27D0F8B81052
:10208000C0F8B820C0F89C17D0F85C24D0F8C01075
:10209000C0F8C020C0F85C14D0F85C22D0F8C4109E
:1020A000C0F8C420C0F85C12D0F85C26D0F8C81084
:1020B000C0F8C820C0F85C16D0F85C21D0F8CC106D
:1020C000C0F8CC20C0F85C11D0F85C25D0F8D01056
:1020D000C0F8D020C0F85C15D0F85C23D0F8D4103C
:1020E000C0F8D420C0F85C13D0F85C27D0F8D81022
:1020F000C0F8D820C0F85C17D0F8DC24D0F8E01085
:10210000C0F8E020C0F8DC14D0F8DC22D0F8E410ED
:10211000C0F8E420C0F8DC12D0F8DC26D0F8E810D3
:10212000C0F8E820C0F8DC16D0F8DC21D0F8EC10BC
:10213000C0F8EC20C0F8DC11D0F8DC25D0F8F010A5
:10214000C0F8F020C0F8DC15D0F8DC23D0F8F4108B
:10215000C0F8F420C0F8DC13D0F8DC27D0F8F81071
:10216000C0F8F820C0F8DC17D0F80C24D0F8001123
:10217000C0F80021C0F80C14D0F80C22D0F80411DB
:10218000C0F80421C0F80C12D0F80C26D0F80811C1
:10219000C0F80821C0F80C16D0F80C25D0F81011A2
:1021A000C0F81021C0F80C15D0F80C23D0F8141189
:1021B000C0F81421C0F80C13D0F80C27D0F818116F
:1021C000C0F81821C0F80C17D0F88C24D0F82011D2
:1021D000C0F82021C0F88C14D0F88C22D0F824113B
:1021E000C0F82421C0F88C12D0F88C26D0F8281121
:1021F000C0F82821C0F88C16D0F88C21D0F82C110A
:10220000C0F82C21C0F88C11D0F88C25D0F83011F2
:10221000C0F83021C0F88C15D0F88C23D0F83411D8
:10222000C0F83421C0F88C13D0F88C27D0F83811BE
:10223000C0F83821C0F88C1702E0000010390020E7
:10224000D0F84C24D0F84011C0F84021C0F84C140C
:10225000D0F84C22D0F84411C0F84421C0F84C12F8
:10226000D0F84C26D0F84811C0F84821C0F84C16D8
:10227000D0F84C25D0F85011C0F85021C0F84C15BA
:10228000D0F84C23D0F85411C0F85421C0F84C13A6
:10229000D0F84C27D0F85811C0F85821C0F84C1786
:1022A000D0F8CC24D0F86011C0F86021C0F8CC146C
:1022B000D0F8CC22D0F86411C0F86421C0F8CC1258
:1022C000D0F8CC26D0F86811C0F86821C0F8CC1638
:1022D000D0F8CC21D0F86C11C0F86C21C0F8CC112A
:1022E000D0F8CC25D0F87011C0F87021C0F8CC150A
:1022F000D0F8CC23D0F87411C0F87421C0F8CC13F6
:10230000D0F8CC27D0F87811C0F87821C0F8CC17D5
:10231000D0F82C24D0F88011C0F88021C0F82C14FB
:10232000D0F82C22D0F88411C0F88421C0F82C12E7
:10233000D0F82C26D0F88811C0F88821C0F82C16C7
:10234000D0F82C25D0F89011C0F89021C0F82C15A9
:10235000D0F82C23D0F89411C0F89421C0F82C1395
:10236000D0F82C27D0F89811C0F89821C0F82C1775
:10237000D0F8AC24D0F8A011C0F8A021C0F8AC145B
:10238000D0F8AC22D0F8A411C0F8A421C0F8AC1247
:10239000D0F8AC26D0F8A811C0F8A821C0F8AC1627
:1023A000D0F8AC25D0F8B011C0F8B021C0F8AC1509
:1023B000D0F8AC23D0F8B411C0F8B421C0F8AC13F5
:1023C000D0F8AC27D0F8B811C0F8B821C0F8AC17D5
:1023D000D0F86C24D0F8C011C0F8C021C0F86C143B
:1023E000D0F86C22D0F8C411C0F8C421C0F86C1227
:1023F000D0F86C26D0F8C811C0F8C821C0F86C1607
:10240000D0F86C25D0F8D011C0F8D021C0F86C15E8
:10241000D0F86C23D0F8D411C0F8D421C0F86C13D4
:10242000D0F86C27D0F8D811C0F8D821C0F86C17B4
:10243000D0F8EC24D0F8E011C0F8E021C0F8EC149A
:10244000D0F8EC22D0F8E411C0F8E421C0F8EC1286
:10245000D0F8EC26D0F8E811C0F8E821C0F8EC1666
:10246000D0F8EC25D0F8F011C0F8F021C0F8EC1548
:10247000D0F8EC23D0F8F411C0F8F421C0F8EC1334
:10248000D0F8EC27D0F8F811C0F8F821C0F8EC1714
:10249000D0F80424D0F80012C0F80022C0F80414C8
:1024A000D0F80426D0F80812C0F80822C0F80416A4
:1024B000D0F80425D0F81012C0F81022C0F8041586
:1024C000D0F80423D0F81412C0F81422C0F8041372
:1024D000D0F80427D0F81812C0F81822C0F8041752
:1024E000D0F88424D0F82012C0F82022C0F8841438
:1024F000D0F88422D0F82412C0F82422C0F8841224
:10250000D0F88426D0F82812C0F82822C0F8841603
:10251000D0F88425D0F83012C0F83022C0F88415E5
:10252000D0F88423D0F83412C0F83422C0F88413D1
:10253000D0F88427D0F83812C0F83822C0F88417B1
:10254000D0F84424D0F84012C0F84022C0F8441417
:10255000D0F84426D0F84812C0F84822C0F84416F3
:10256000D0F84425D0F85012C0F85022C0F84415D5
:10257000D0F84423D0F85412C0F85422C0F84413C1
:10258000D0F84427D0F85812C0F85822C0F84417A1
:10259000D0F8C424D0F86012C0F86022C0F8C41487
:1025A000D0F8C422D0F86412C0F86422C0F8C41273
:1025B000D0F8C426D0F86812C0F86822C0F8C41653
:1025C000D0F8C425D0F87012C0F87022C0F8C41535
:1025D000D0F8C423D0F87412C0F87422C0F8C41321
:1025E000D0F8C427D0F87812C0F87822C0F8C41701
:1025F000D0F82424D0F88012C0F88022C0F8241427
:10260000D0F82426D0F88812C0F88822C0F8241602
:10261000D0F82425D0F89012C0F89022C0F82415E4
:10262000D0F82423D0F89412C0F89422C0F82413D0
:10263000D0F82427D0F89812C0F89822C0F82417B0
:10264000D0F8A424D0F8A012C0F8A022C0F8A41496
:10265000D0F8A426D0F8A812C0F8A822C0F8A41672
:10266000D0F8A425D0F8B012C0F8B022C0F8A41554
:10267000D0F8A423D0F8B412C0F8B422C0F8A41340
:10268000D0F8A427D0F8B812C0F8B822C0F8A41720
:10269000D0F86424D0F8C012C0F8C022C0F8641486
:1026A000D0F86426D0F8C812C0F8C822C0F8641662
:1026B000D0F86425D0F8D012C0F8D022C0F8641544
:1026C000D0F86423D0F8D412C0F8D422C0F8641330
:1026D000D0F86427D0F8D812C0F8D822C0F8641710
:1026E000D0F8E424D0F8E012C0F8E022C0F8E414F6
:1026F000D0F8E426D0F8E812C0F8E822C0F8E416D2
:10270000D0F8E425D0F8F012C0F8F022C0F8E415B3
:10271000D0F8E423D0F8F412C0F8F422C0F8E4139F
:10272000D0F8E427D0F8F812C0F8F822C0F8E4177F
:10273000D0F81424D0F80013C0F80023C0F8141403
:10274000D0F81426D0F80813C0F80823C0F81416DF
:10275000D0F81425D0F81013C0F81023C0F81415C1
:10276000D0F81427D0F81813C0F81823C0F814179D
:10277000D0F89424D0F82013C0F82023C0F8941483
:10278000D0F89426D0F82813C0F82823C0F894165F
:10279000D0F89425D0F83013C0F83023C0F8941541
:1027A000D0F89423D0F83413C0F83423C0F894132D
:1027B000D0F89427D0F83813C0F83823C0F894170D
:1027C000D0F85424D0F84013C0F84023C0F8541473
:1027D000D0F85426D0F84813C0F84823C0F854164F
:1027E000D0F85425D0F85013C0F85023C0F8541531
:1027F000D0F85427D0F85813C0F85823C0F854170D
:10280000D0F8D424D0F86013C0F86023C0F8D414F2
:10281000D0F8D426D0F86813C0F86823C0F8D416CE
:10282000D0F8D425D0F87013C0F87023C0F8D415B0
:10283000D0F8D423D0F87413C0F87423C0F8D4139C
:10284000D0F8D427D0F87813C0F87823C0F8D4177C
:10285000D0F83424D0F88013C0F88023C0F83414A2
:10286000D0F83426D0F88813C0F88823C0F834167E
:10287000D0F83425D0F89013C0F89023C0F8341560
:10288000D0F83427D0F89813C0F89823C0F834173C
:10289000D0F8B424D0F8A013C0F8A023C0F8B41422
:1028A000D0F8B426D0F8A813C0F8A823C0F8B416FE
:1028B000D0F8B425D0F8B013C0F8B023C0F8B415E0
:1028C000D0F8B427D0F8B813C0F8B823C0F8B417BC
:1028D000D0F87424D0F8C013C0F8C023C0F8741422
:1028E000D0F87426D0F8C813C0F8C823C0F87416FE
:1028F000D0F87425D0F8D013C0F8D023C0F87415E0
:10290000D0F87427D0F8D813C0F8D823C0F87417BB
:10291000D0F8F424D0F8E013C0F8E023C0F8F414A1
:10292000D0F8F426D0F8E813C0F8E823C0F8F4167D
:10293000D0F8F425D0F8F013C0F8F023C0F8F4155F
:10294000D0F8F427D0F8F813C0F8F823C0F8F4173B
:10295000D0F80026D0F80814C0F80824C0F80016F3
:10296000D0F80025D0F81014C0F81024C0F80015D5
:10297000D0F80027D0F81814C0F81824C0F80017B1
:10298000D0F88024D0F82014C0F82024C0F8801497
:10299000D0F88026D0F82814C0F82824C0F8801673
:1029A000D0F88025D0F83014C0F83024C0F8801555
:1029B000D0F88027D0F83814C0F83824C0F8801731
:1029C000D0F84026D0F84814C0F84824C0F8401683
:1029D000D0F84025D0F85014C0F85024C0F8401565
:1029E000D0F84027D0F85814C0F85824C0F8401741
:1029F000D0F8C024D0F86014C0F86024C0F8C01427
:102A0000D0F8C026D0F86814C0F86824C0F8C01602
:102A1000D0F8C025D0F87014C0F87024C0F8C015E4
:102A2000D0F8C027D0F87814C0F87824C0F8C017C0
:102A3000D0F82026D0F88814C0F88824C0F82016D2
:102A4000D0F82025D0F89014C0F89024C0F82015B4
:102A5000D0F82027D0F89814C0F89824C0F8201790
:102A6000D0F8A026D0F8A814C0F8A824C0F8A01662
:102A7000D0F8A025D0F8B014C0F8B024C0F8A01544
:102A8000D0F8A027D0F8B814C0F8B824C0F8A01720
:102A9000D0F86026D0F8C814C0F8C824C0F8601672
:102AA000D0F86025D0F8D014C0F8D024C0F8601554
:102AB000D0F86027D0F8D814C0F8D824C0F8601730
:102AC000D0F8E026D0F8E814C0F8E824C0F8E01602
:102AD000D0F8E025D0F8F014C0F8F024C0F8E015E4
:102AE000D0F8E027D0F8F814C0F8F824C0F8E017C0
:102AF000D0F81026D0F80815C0F80825C0F8101630
:102B0000D0F81027D0F81815C0F81825C0F81017FD
:102B1000D0F89026D0F82815C0F82825C0F89016CF
:102B2000D0F89025D0F83015C0F83025C0F89015B1
:102B3000D0F89027D0F83815C0F83825C0F890178D
:102B4000D0F85026D0F84815C0F84825C0F85016DF
:102B5000D0F85027D0F85815C0F85825C0F85017AD
:102B6000D0F8D026D0F86815C0F86825C0F8D0167F
:102B7000D0F8D025D0F87015C0F87025C0F8D01561
:102B8000D0F8D027D0F87815C0F87825C0F8D0173D
:102B9000D0F83026D0F88815C0F88825C0F830164F
:102BA000D0F83027D0F89815C0F89825C0F830171D
:102BB000D0F8B026D0F8A815C0F8A825C0F8B016EF
:102BC000D0F8B027D0F8B815C0F8B825C0F8B017BD
:102BD000D0F87026D0F8C815C0F8C825C0F870160F
:102BE000D0F87027D0F8D815C0F8D825C0F87017DD
:102BF000D0F8F026D0F8E815C0F8E825C0F8F016AF
:102C0000D0F8F027D0F8F815C0F8F825C0F8F0177C
:102C1000D0F80827D0F81816C0F81826C0F80817FA
:102C2000D0F88826D0F82816C0F82826C0F88816CC
:102C3000D0F88827D0F83816C0F83826C0F888179A
:102C4000D0F84827D0F85816C0F85826C0F84817CA
:102C5000D0F8C826D0F86816C0F86826C0F8C8169C
:102C6000D0F8C827D0F87816C0F87826C0F8C8176A
:102C7000D0F82827D0F89816C0F89826C0F828175A
:102C8000D0F8A827D0F8B816C0F8B826C0F8A8170A
:102C9000D0F86827D0F8D816C0F8D826C0F868173A
:102CA000D0F8E827D0F8F816C0F8F826C0F8E817EA
:102CB000D0F89827D0F83817C0F83827C0F89817F8
:102CC000D0F8D827D0F87817C0F87827C0F8D817E8
:102CD0007047000070B51A4A002002F5805100BF0D
:102CE00052F8204051F820309C4202DD41F820404B
:102CF00003E0A3F5FA6341F82030401C2828EFDBFD
:102D00005FF0000000EB400402EB840400F12803B4
:102D1000F4E928563544A468DBB22C4404EBD4749F
:102D200051F823506410A54202DA41F8234003E031
:102D3000A5F5FA6541F82350401C1828E2DB70BD68
:102D4000103900202DE9F04106460F46FDF787FABD
:102D5000041E0D4618BF0120284320F00040C0F19A
:102D60007F6000F1E040C00F0ED0301C18BF012082
:102D7000384320F00040C0F17F6000F1E040C00F18
:102D800004BF0120FEF740FF20462946BDE8F08140
:102D9000000000000000000001020304060708090B
:102DA00000000000010203040900000012000000FE
:102DB00024000000480000009000000000009C007B
:102DC000B99CB900DAB9A49CA4B9DA00ECDAC8B9A4
:102DD000ADA49E9C9EA4ADB9C8DAEC00F6ECE3DA93
:102DE000D1C8C1B9B3ADA8A4A09E9C9C9C9EA0A430
:102DF000A8ADB3B9C1C8D1DAE3ECF600FBF6F1EC4B
:102E0000E8E3DEDAD5D1CDC8C4C1BDB9B6B3B0AD43
:102E1000AAA8A6A4A2A09F9E9D9C9C9C9C9C9D9EB3
:102E20009FA0A2A4A6A8AAADB0B3B6B9BDC1C4C89C
:102E3000CDD1D5DADEE3E8ECF1F6FB00FDFBF9F6E7
:102E4000F4F1EFECEAE8E5E3E1DEDCDAD7D5D3D163
:102E5000CFCDCAC8C6C4C2C1BFBDBBB9B8B6B4B372
:102E6000B1B0AEADABAAA9A8A7A6A5A4A3A2A1A0E4
:102E7000A09F9E9E9D9D9D9C9C9C9C9C9C9C9C9C84
:102E80009D9D9D9E9E9FA0A0A1A2A3A4A5A6A7A82C
:102E9000A9AAABADAEB0B1B3B4B6B8B9BBBDBFC1F2
:102EA000C2C4C6C8CACDCFD1D3D5D7DADCDEE1E300
:102EB000E5E8EAECEFF1F4F6F9FBFD00FFFDFCFBC1
:102EC000FAF9F7F6F5F4F2F1F0EFEEECEBEAE9E8F7
:102ED000E6E5E4E3E2E1DFDEDDDCDBDAD9D7D6D517
:102EE000D4D3D2D1D0CFCECDCBCAC9C8C7C6C5C422
:102EF000C3C2C1C1C0BFBEBDBCBBBAB9B8B8B7B60A
:102F0000B5B4B3B3B2B1B0B0AFAEADADACABABAACC
:102F1000AAA9A8A8A7A7A6A6A5A5A4A4A3A3A2A258
:102F2000A1A1A1A0A0A09F9F9F9E9E9E9E9D9D9DB2
:102F30009D9D9D9C9C9C9C9C9C9C9C9C9C9C9C9CCE
:102F40009C9C9C9C9D9D9D9D9D9D9E9E9E9E9F9FAD
:102F50009FA0A0A0A1A1A1A2A2A3A3A4A4A5A5A64D
:102F6000A6A7A7A8A8A9AAAAABABACADADAEAFB0B7
:102F7000B0B1B2B3B3B4B5B6B7B8B8B9BABBBCBDEB
:102F8000BEBFC0C1C1C2C3C4C5C6C7C8C9CACBCDF4
:102F9000CECFD0D1D2D3D4D5D6D7D9DADBDCDDDED3
:102FA000DFE1E2E3E4E5E6E8E9EAEBECEEEFF0F19D
:102FB000F2F4F5F6F7F9FAFBFCFDFF6464006447F0
:102FC00000B9645C472600DAB9A464625C534738F0
:102FD000261400ECDAC8B9ADA49E646462605C5843
:102FE000534D473F382F261D140A00F6ECE3DAD183
:102FF000C8C1B9B3ADA8A4A09E9C646464636261B7
:10300000605E5C5A585653504D4A47433F3C3833F4
:103010002F2B26221D18140F0A0500FBF6F1ECE8F1
:10302000E3DEDAD5D1CDC8C4C1BDB9B6B3B0ADAA5F
:10303000A8A6A4A2A09F9E9D9C9C646464646463F3
:10304000636362626160605F5E5D5C5B5A595857A2
:1030500056555352504F4D4C4A48474543413F3EC9
:103060003C3A383633312F2D2B292624221F1D1BA5
:10307000181614110F0C0A07050300FDFBF9F6F4EE
:10308000F1EFECEAE8E5E3E1DEDCDAD7D5D3D1CF46
:10309000CDCAC8C6C4C2C1BFBDBBB9B8B6B4B3B14E
:1030A000B0AEADABAAA9A8A7A6A5A4A3A2A1A0A0B3
:1030B0009F9E9E9D9D9D9C9C9C9C64646464646496
:1030C00064646463636363636362626262616161D7
:1030D0006060605F5F5F5E5E5D5D5C5C5B5B5A5A1B
:1030E0005959585857565655555453535251505094
:1030F0004F4E4D4D4C4B4A49484847464544434244
:1031000041403F3F3E3D3C3B3A393837363533321C
:1031100031302F2E2D2C2B2A29272625242322211E
:103120001F1E1D1C1B1A18171615141211100F0E36
:103130000C0B0A0907060504030100FFFDFCFBFA5E
:10314000F9F7F6F5F4F2F1F0EFEEECEBEAE9E8E688
:10315000E5E4E3E2E1DFDEDDDCDBDAD9D7D6D5D4A6
:10316000D3D2D1D0CFCECDCBCAC9C8C7C6C5C4C3B0
:10317000C2C1C1C0BFBEBDBCBBBAB9B8B8B7B6B595
:10318000B4B3B3B2B1B0B0AFAEADADACABABAAAA55
:10319000A9A8A8A7A7A6A6A5A5A4A4A3A3A2A2A1DF
:1031A000A1A1A0A0A09F9F9F9E9E9E9E9D9D9D9D34
:1031B0009D9D9C9C9C9C9C9C9C9C030100000000F1
:1031C00000000001010000000000000000000000FD
:1031D00000000000020406090D1013161A1C1E1F21
:1031E0001F1E1E1E1F1F1F1F1F1F1F1F1F1F1F1FF2
:1031F0001F1F1F1F1F1F1F1F1F1F04020000000093
:1032000000000000000000000000000000000000BE
:1032100000000000020305080C0F1215191B1D1FEA
:103220001F1F1F1F1F1F1F1F1F1F1F1F1F1F1F1FAE
:103230001F1F1F1F1F1F1F1F1F1F0503010000004F
:10324000000000000000000000000000000000007E
:1032500000000000010204070B0E1114171A1C1EB7
:103260001F1F1F1F1F1F1F1F1F1F1F1F1F1F1F1F6E
:103270001F1F1F1F1F1F1F1F1F1F0604020000000C
:10328000000000000000000000000000000000003E
:103290000000000001020306090D0F1216191C1E82
:1032A0001F1F1F1F1F1F1F1F1F1F1F1F1F1F1F1F2E
:1032B0001F1F1F1F1F1F1F1F1F1F080502010000C8
:1032C00000000000010000000000000000000000FD
:1032D0000000000000010204080B0E1115181A1D51
:1032E0001E1F1F1F1F1F1E1E1F1F1F1E1E1F1F1FF3
:1032F0001F1F1F1F1F1F1F1F1F1F09070401000083
:1033000000000000010100000000000000000000BB
:10331000000000000000010306090C0F1317191C20
:103320001E1F1F1F1F1F1E1E1F1F1F1E1E1F1F1FB2
:103330001F1F1F1F1F1F1F1F1F1F0A08040201003E
:10334000000000000000000000000000000000007D
:10335000000000000000000205080B0E1216181BEA
:103360001D1F1F1F1F1F1E1F1F1F1F1F1E1F1F1F71
:103370001F1F1F1F1F1F1F1F1F1F0B0905030100FA
:10338000000000000000000000000000000000003D
:10339000000000000000000204070A0D1115171AB2
:1033A0001D1F1F1F1F1F1F1F1F1F1F1F1E1F1F1F30
:1033B0001F1F1F1F1F1F1F1F1F1F0D0A07050301B0
:1033C00000000000000000000001000000000000FC
:1033D00000000100000000010305090B0F12151881
:1033E0001B1E1E1F1F1F1F1F1F1E1F1F1F1F1F1FF4
:1033F0001F1F1F1F1F1F1F1F1F1F0E0B080503016D
:1034000000000000000000000001000000000000BB
:1034100000000100000000010304080B0E11141746
:103420001B1D1E1F1F1F1F1F1F1F1F1F1F1F1F1FB3
:103430001F1F1F1F1F1F1F1F1F1F0F0C0906040226
:10344000000000000000000000000000000000007C
:103450000000010000000001020407090D1013160E
:10346000191C1E1F1F1F1F1F1F1F1F1F1F1F1F1F76
:103470001F1F1F1F1F1F1F1F1F1F110E0A080503DD
:10348000000000000000000000000000010000003B
:103490000000000000000000010205080B0F1115DC
:1034A000181B1D1E1F1F1F1F1F1F1F1F1F1F1F1F3A
:1034B0001F1F1F1F1F1F1F1F1F1F120F0C09060496
:1034C00001000000000000000000000101000000F9
:1034D0000000000000000000010104070A0D1013A5
:1034E00017191C1E1F1F1F1F1F1F1F1F1E1F1F1FFF
:1034F0001F1F1F1F1F1F1F1F1F1F13100D0A070550
:1035000002000001000001000000000000000000B7
:10351000000000000000000000010305090C0F126C
:1035200015181B1D1F1F1F1F1F1F1F1F1F1F1F1FC2
:103530001F1F1F1F1F1F1F1F1F1F15120E0B090606
:103540000301000000000000000000000000000077
:10355000000000000000000000000104070B0D1136
:1035600014171A1C1E1F1F1F1F1F1F1F1F1F1F1F87
:103570001F1F1F1F1F1F1F1F1F1F16130F0C0906C2
:103580000402000000000000000000000000000035
:10359000000100000000000000000103070A0D10F8
:1035A00014161A1C1E1F1F1F1F1F1F1F1F1F1F1F48
:1035B0001F1F1F1F1F1F1F1F1F1F1715110E0B0877
:1035C00005030100000000000000000001000000F1
:1035D00000000000000000000000000205080A0DC5
:1035E0001115181A1D1E1F1F1F1F1E1F1F1F1F1E14
:1035F0001F1F1F1F1F1F1F1F1F1F1815120F0C0932
:1036000006030201000000000000000000000000AE
:1036100000000000000000000000000204070A0D86
:103620001114171A1C1E1F1F1F1F1F1F1F1F1F1FD4
:103630001F1F1F1F1F1F1F1F1F1F191613100D0AEB
:10364000070402010000000000000000000000006C
:103650000000000000000000000000010306080B4D
:103660000F1216181B1D1F1F1F1F1F1F1F1F1F1F9D
:103670001F1F1F1F1F1F1F1F1F1F1A1814110F0BA3
:103680000806030100000000000000000000000028
:103690000000000000000000000000010304070A11
:1036A0000E1114171A1C1E1F1F1F1F1F1F1F1F1F65
:1036B0001F1F1F1F1F1F1F1F1F1F1B191613100D5A
:1036C00009070402000000000000000000000000E4
:1036D00000000000000000000000000102030508D7
:1036E0000C0F1315191B1D1F1F1F1F1F1F1F1F1E30
:1036F0001E1F1F1F1F1F1F1F1F1F1D1A1714120E13
:103700000B0805030100000000000000010000009C
:10371000000000000000000000000000010204069C
:103720000B0E1114171B1D1E1F1F1F1F1F1F1F1EF7
:103730001F1F1F1F1F1F1F1F1F1F1E1B1815120FCC
:103740000C09060402010000000000000000000057
:103750000000000000000000000000000001030560
:10376000090C1013161A1C1D1F1F1F1F1F1F1F1FC0
:103770001F1F1F1F1F1F1F1F1F1F1F1C1916131086
:103780000D0A060402010000000000000000000015
:103790000000000000000000000001000000020422
:1037A000080C0F1216191B1D1F1F1F1F1F1F1F1F85
:1037B0001F1F1F1F1F1F1F1F1F1F1F1D1B1816133B
:1037C0000F0C0906030100000000010000000000CA
:1037D00000010000000000000000000000000103E4
:1037E000070A0D101417191B1E1F1F1F1F1F1E1E57
:1037F0001F1F1F1F1F1F1F1F1F1F1F1D1B191614F9
:10380000100C0A0704020000000000000000000085
:1038100000010000000000000000000000000103A3
:1038200006090C0F1316181B1D1F1F1F1F1F1F1F1C
:103830001F1F1F1F1F1F1F1F1F1F1F1E1C1A1815B2
:10384000110E0B080503010000000000000000003D
:103850000000000000000000000000000000000266
:1038600005080B0D1115171A1D1F1F1F1F1F1F1FE6
:103870001F1F1F1F1F1F1F1F1F1F1F1E1D1B19166E
:10388000120F0C09060402000000000000000000F6
:103890000000000000000000000000000000000127
:1038A0000406090C101316191C1E1F1F1F1F1F1FB3
:1038B0001F1F1F1F1F1F1F1F1F1F1F1F1D1C1A172A
:1038C00014110D0B080503010000000000000000AA
:1038D00000000000000000000000000000000001E7
:1038E0000305080A0E1215171A1D1E1F1F1F1F1F82
:1038F0001F1F1F1F1F1F1F1F1F1F1F1F1E1C1B18E7
:1039000015120F0C09060402000000000000000060
:1039100000000000000000000000000000000000A7
:10392000020406090D1013161A1C1E1F1F1F1F1F4D
:103930001F1E1F1F1F1F1F1F1F1F1F1F1E1D1C1AA3
:103940001614100D0A070503010000000000000016
:103950000000000000000000000000000000000067
:10396000010305080C0F1215181B1D1E1F1F1F1F1A
:103970001F1F1F1F1F1F1F1F1F1F1F1F1F1E1C1A60
:103980001714110E0B0805030100000000000000D1
:103990000000000000000000000000000000000027
:1039A000010204070B0E1114181A1C1E1F1F1F1FE3
:1039B0001F1F1F1F1F1F1F1F1F1F000000010407C5
:1039C0000B0D1215181B1D1F1F1F1F1F1F1F1F1F51
:1039D0001F1F1F1F1F1F1F1F1F1F1F1F1F1F1F1FF7
:1039E0001D1A1713100C0906030000000000000048
:1039F00000000000000000000000000000010306BD
:103A00000A0D1114171A1D1F1F1F1F1F1F1F1F1F15
:103A10001F1F1F1F1F1F1F1F1F1F1F1F1F1F1F1FB6
:103A20001D1B1814110D0A070401000000000000FE
:103A3000000000000000000000000000000102057E
:103A4000090B0F1216191C1E1F1F1F1F1F1F1F1FE0
:103A50001F1F1F1F1F1F1F1F1F1F1F1F1F1F1F1F76
:103A60001E1C1916120F0B080502000000000000B2
:103A70000000000000000000000000000000020440
:103A8000070A0E1114181B1D1F1F1F1F1F1F1F1FAA
:103A90001F1F1F1F1F1F1F1F1F1F1F1F1F1F1F1F36
:103AA0001E1D1A1714100D0A060301000000000065
:103AB0000000000000000000000000000000010302
:103AC00006080D0F1316191C1E1F1F1F1F1F1F1F77
:103AD0001F1F1F1F1F1F1F1F1F1F1F1F1F1F1F1FF6
:103AE0001F1E1B1815120E0B080402010000000017
:103AF00000000000000000000000000000000002C4
:103B000004070B0E1115181B1D1F1F1F1F1F1F1F42
:103B10001F1F1F1F1F1F1F1F1F1F1F1F1F1F1F1FB5
:103B20001F1E1D1A1613100D0906030200000000C7
:103B30000000000000000000000000000000000184
:103B40000305090C1014171A1D1E1F1F1F1F1F1F0E
:103B50001F1F1F1F1F1F1F1F1F1F1F1F1F1F1F1F75
:103B60001F1F1E1B1815120E0A070402000000007A
:103B70000001000000000000000000000000000143
:103B80000304080B0F1216191C1E1F1F1F1F1F1FD7
:103B90001F1F1F1F1F1F1F1F1F1F1F1F1F1F1F1F35
:103BA0001F1F1E1C1916130F0B0804020000000033
:103BB0000001000000000000000000000000000004
:103BC000010306090D1114171A1D1F1F1F1F1F1FA8
:103BD0001F1F1E1F1F1F1F1F1F1F1F1F1F1F1F1FF6
:103BE0001F1F1F1E1B1815110D0A060401000000DF
:103BF00000000000000000000000000000000000C5
:103C0000010305080C0F1316191C1E1F1F1F1F1F71
:103C10001F1F1F1F1F1F1F1E1F1F1F1F1F1F1F1FB5
:103C20001F1F1F1E1B1815120E0B07050200000098
:103C30000000000000000000000000000000000084
:103C4000010204070B0E1115181B1E1F1F1F1F1F3B
:103C50001F1F1F1F1F1F1F1E1F1F1F1F1F1F1F1F75
:103C60001F1F1F1E1C1A1713100D09060301000049
:103C70000000000000000000000000000000000044
:103C800000010306090C1013171A1D1E1F1F1F1F0A
:103C90001F1F1F1F1F1F1F1E1F1F1F1F1F1F1F1F35
:103CA0001F1F1F1F1D1B1815110E0A0804020000FC
:103CB0000000000000000000000000000000000004
:103CC00000010205080B0E1215191B1D1F1F1F1FD7
:103CD0001F1F1F1F1F1F1F1E1F1F1F1F1F1F1F1FF5
:103CE0001F1F1F1F1E1C1A1612100B0906030100AE
:103CF00000000000000000000000000000000000C4
:103D00000000010406090D1014171A1C1E1F1F1FA6
:103D10001F1F1F1F1F1F1F1F1F1F1F1F1F1F1F1FB3
:103D20001F1F1F1F1F1D1B1814110D0A0704010060
:103D30000000000000000000000000000000000083
:103D40000000000205080B0E1216191B1E1F1F1F74
:103D50001F1F1F1F1F1F1F1F1F1F1F1F1F1F1F1F73
:103D60001F1F1F1F1F1E1C1916130E0C0805020013
:103D70000000000000000000000000000000000043
:103D80000000000204070A0D1115181B1D1F1F1F3C
:103D90001F1F1F1F1F1F1F1F1F1F1F1F1F1F1F1F33
:103DA0001F1F1F1F1F1E1D1A16140F0D09060301CA
:103DB0000000000000000000000000000000000003
:103DC000000000010305080C0F1216191C1E1F1F0E
:103DD0001F1F1F1F1F1F1F1F1F1F1F1F1F1F1F1FF3
:103DE0001F1F1F1F1F1F1E1C1816120F0B07040278
:103DF00000000000000000000000000000000000C3
:103E0000000000000205070B0E1116181B1D1F1FD6
:103E10001F1F1F1F1F1F1F1F1F1F1F1F1F1F1F1FB2
:103E20001F1F1F1F1F1F1E1C191613100C08050330
:103E30000100000000000000000000000000000081
:103E400000000000010306090D1014171A1C1E1FA4
:103E50001F1F1F1F1F1F1F1F1F1F1F1F1F1F1F1F72
:103E60001F1F1F1F1F1F1F1D1A1814110D0A0704E3
:103E70000200000000000000000000000000000040
:103E800000000000010205080C0E1315191C1E1F6E
:103E90001F1F1F1F1F1F1F1F1F1F1F1F1F1F1F1F32
:103EA0001F1F1F1F1F1F1F1E1C1916130F0B080596
:103EB00002010000000000000000000000000000FF
:103EC00000000000000103060A0D1114171B1D1F3E
:103ED0001F1F1F1F1F1F1F1F1F1F1F1F1F1F1F1FF2
:103EE0001F1F1F1F1F1F1F1F1D1B1714100D0A064A
:103EF00003020000000000000000000000000000BD
:103F00000000000000010205090C0F1216191C1E0A
:103F10001F1F1F1F1F1F1F1F1F1F1F1F1F1F1F1FB1
:103F20001F1F1F1F1F1F1F1F1D1C1916120F0B08FD
:103F3000040200000000000000000000000000007B
:103F40000000000000000104070A0E1115181B1DD7
:103F50001F1F1F1F1F1F1F1F1F1F1F1F1F1F1F1F71
:103F60001F1F1F1F1F1F1F1F1E1D1A1713100D09B4
:103F70000503000000000000000000000000000039
:103F8000000000000000010306090D1014171A1D9F
:103F90001E1F1F1F1F1F1F1F1F1F1F1F1F1F1F1F32
:103FA0001F1F1F1F1F1F1F1F1F1E1B1814110E0A6C
:103FB00006040100000000000000000000000000F6
:103FC000000000000000000204070A0E1216191B70
:103FD0001D1F1F1F1F1F1F1F1F1F1F1F1F1F1F1FF3
:103FE0001F1F1F1F1F1F1F1F1F1F1C1A1613100C20
:103FF00008060201000000000000000000000000B0
:1040000000000000000000010406090D1115181A37
:104010001D1F1F1F1F1F1F1F1F1F1F1F1F1F1F1FB2
:104020001F1F1F1F1F1F1F1F1F1F1D1A1714110DDA
:10403000090703020000000000000000000000006B
:1040400000000000000000010305080B0F13161903
:104050001C1E1F1F1F1F1F1F1F1F1F1F1F1F1F1F74
:104060001F1F1F1F1F1F1F1F1F1F1E1C1815120F92
:104070000B08040301000000000000000000000025
:1040800000000000000000000204070A0E111518CD
:104090001B1D1F1F1F1F1F1F1F1F1F1F1F1F1F1F36
:1040A0001F1F1F1F1F1F1F1F1F1F1F1D1A17141049
:1040B0000C0A0604010000000000000000000000DF
:1040C0000000000000000000010305090C10131699
:1040D0001A1D1E1F1F1F1F1F1F1F1F1F1F1F1F1FF8
:1040E0001F1F1F1F1F1F1F1F1F1F1F1E1B18151203
:1040F0000E0B070502010000000000000000000098
:104100000000000000000000010204070B0E121561
:10411000181C1D1F1F1F1F1F1F1F1F1F1F1F1F1FBB
:104120001F1F1F1F1F1F1F1F1F1F1F1E1C191713BD
:104130000F0C090603010000000000000000000051
:10414000000000000000000000010306090D10142B
:10415000171A1D1E1F1F1F1F1F1F1F1F1F1F1F1F7F
:104160001F1F1F1F1F1F1F1F1F1F1F1F1D1B181576
:10417000110E0A070401000000000000000000000A
:10418000000000000000000000000205090C0F13F1
:10419000161A1D1E1F1F1F1F1F1F1F1F1F1F1F1F40
:1041A0001F1F1F1F1F1F1F1F1F1F1F1F1E1C191632
:1041B000120F0B080402010000001F1F1F1F1F1F0A
:1041C0001F1F1F1F1F1F1F1F1D1B181613100D0A57
:1041D00006030200000001000000000000000001D2
:1041E00000000000000000000000000000010000CE
:1041F000000000000000000000001F1F1F1F1F1F05
:104200001F1F1F1F1F1F1F1F1E1B191613110E0A12
:104210000604020100000000000000000000000190
:10422000000000000000000000000000000100008D
:10423000000000000000000000001F1F1F1F1F1EC5
:104240001F1F1F1F1E1E1F1F1E1C1A1714120F0BCD
:10425000080503010000000000000000000000014C
:10426000010000000100000000000000000000004C
:10427000000000000000000000001F1F1F1F1F1E85
:104280001F1F1F1F1F1F1F1F1E1D1B191613100D81
:104290000906040201000000000000000000000107
:1042A000000000000101000000000000000000000C
:1042B000000000000000000000001F1F1F1F1F1E45
:1042C0001F1F1F1F1F1F1F1F1F1E1C1A1714120F37
:1042D0000B080604010000000000000000000000C0
:1042E00000000000000000000000000000000000CE
:1042F000000000000000000000001E1F1F1F1F1F05
:104300001F1F1F1F1F1F1F1F1F1F1D1B18161310EE
:104310000D0A070502000000000000000100000077
:10432000000000000000000000000000000000008D
:10433000000000000000000000001F1F1F1F1F1FC3
:104340001F1F1F1F1F1F1F1F1F1F1E1C19171412A7
:104350000E0B080502000000000000000000000035
:10436000000000000001000000000100000000004B
:10437000000000000000000000001F1F1F1F1F1F83
:104380001F1F1F1F1E1F1F1F1F1F1F1D1A17151264
:104390000E0C0806030100000000000000000000F1
:1043A000000000000101000000000100000000000A
:1043B000000000000000000000001F1F1F1F1F1F43
:1043C0001F1F1F1F1F1F1F1F1F1F1F1E1C1917141A
:1043D000100D0A08040201000000000000000000A7
:1043E00000000000000000010000000000000000CC
:1043F000000000000000000000001F1F1F1F1F1E04
:104400001F1F1F1F1E1F1F1F1F1F1F1E1C1A1815D7
:10441000110E0B0805030100000000000000000061
:104420000000000000000101000001000000000089
:10443000000000000000000000001F1F1F1F1F1FC2
:104440001F1F1F1F1E1E1F1F1F1F1F1F1D1B191693
:10445000120F0C0906040201000000000000000019
:10446000000000000000000100000100000000004A
:10447000000000000000000000001F1F1F1F1F1F82
:104480001F1F1F1F1E1E1F1F1F1F1F1F1E1C1A174F
:1044900013110E0B070503020000000000000000CE
:1044A0000000000001000001000001000000000009
:1044B000000000000000000000001F1F1F1F1F1F42
:1044C0001E1F1F1F1F1E1F1F1F1F1F1F1E1D1B190B
:1044D00015120F0D09060402010000000000000083
:1044E00000000000000000000000000000000000CC
:1044F000000000000000000000001F1F1F1F1F1F02
:104500001F1F1F1F1F1F1F1F1F1F1F1F1F1E1C1AC4
:104510001714110E0A070503010000000000000037
:10452000000000000000000000000000000000008B
:10453000000000000000000000001F1F1F1F1F1FC1
:104540001F1E1F1F1F1E1F1F1F1F1F1F1F1E1E1B83
:104550001815120F0B0806040200000000000000EE
:10456000000000000000000000000100000000004A
:10457000000000000000000000001F1F1F1F1F1F81
:104580001F1F1F1F1F1E1F1F1F1F1E1F1F1F1E1B42
:10459000181613100C0907040201000000000000A7
:1045A000000000000000000000000100000000000A
:1045B000000000000000000000001F1F1E1F1F1F42
:1045C0001F1F1F1F1F1F1F1F1F1F1F1F1F1F1F1DFD
:1045D0001A1815120F0B0906030001000000000055
:1045E00000000000000000000000010000000000CA
:1045F000000000000000000000001F1F1F1F1F1F01
:104600001F1F1F1F1F1F1F1E1F1F1F1F1F1F1F1EBC
:104610001B1815130F0C090703010100000000000F
:104620000000000000000000000001000000000089
:10463000000000000000000000001F1F1F1F1F1FC0
:104640001F1F1F1F1F1F1F1E1E1F1F1F1F1F1F1E7D
:104650001B191614100D0A080402010000000000C6
:104660000000000000000001010001000000000047
:10467000000000000000000000001F1F1F1F1F1F80
:104680001F1F1F1F1F1F1F1F1F1F1F1F1F1F1F1F3A
:104690001C1A1815120F0C09050302000000000077
:1046A0000000000000000001000001000000000008
:1046B000000000000000000000001F1F1F1F1F1F40
:1046C0001F1F1F1F1F1F1F1F1F1F1F1F1F1F1F1FFA
:1046D0001D1B191713100E0A070503010000000027
:1046E00000000000000000010000000000000000C9
:1046F000000000000000000000001F1F1F1F1F1F00
:104700001F1F1F1F1F1F1F1F1F1F1F1F1F1F1F1FB9
:104710001E1D1B1815120F0C0906030200000000D5
:104720000000000000000000000000000000000089
:10473000000000000000000000001F1F1F1F1F1FBF
:104740001F1F1F1F1F1F1F1F1F1F1F1F1E1F1F1F7A
:104750001F1E1B191613100D09070402000000008C
:104760000000000000000000000000000000010147
:10477000000000000000000000001F1F1F1F1F1F7F
:104780001F1F1F1F1F1F1F1F1F1F1F1E1E1E1F1F3C
:104790001F1E1C1A1613110E0A0804020000000046
:1047A0000000000000000000000000000000010107
:1047B000000001000000000000001F1F1F1F1E1E40
:1047C0001F1F1E1F1F1F1F1F1F1F1F1F1F1F1F1FFA
:1047D0001F1E1D1B191614100B08060401000000F3
:1047E00000000000010100000000000000000000C7
:1047F000000001000000000000001F1F1F1F1E1E00
:104800001F1F1F1F1F1F1F1F1F1F1F1F1F1F1F1FB8
:104810001E1E1E1C191714100C09070402000000AC
:104820000000000001000000000000000000010185
:10483000000001000000000000001F1F1F1F1E1FBE
:104840001F1F1F1F1F1F1F1E1E1F1F1F1E1F1F1F7B
:104850001F1E1E1C1A1715120D0A08060301000060
:104860000000000000000000000001000000010145
:10487000000001000000000000001D1F1F1F1F1F7F
:104880001F1F1F1F1F1F1F1E1E1F1F1F1E1F1F1F3B
:104890001F1F1F1D1B1916130F0C0907040201000F
:1048A0000000000000000000000001000000000007
:1048B000000001000000000000001C1E1F1F1F1F41
:1048C0001F1F1F1F1F1F1F1E1E1F1F1F1F1F1F1FFA
:1048D0001F1F1F1E1C1A1715110E0B0805030201BE
:1048E00000000000000000000000000000000000C8
:1048F000000000000000000000001B1D1F1F1F1F04
:104900001F1F1F1F1F1F1F1F1F1F1F1F1F1F1F1FB7
:104910001F1F1F1F1D1B191613100C09060403016E
:104920000000000000000000000000000000000087
:10493000000000000000010000001A1C1E1F1F1FC5
:104940001F1F1F1F1F1F1F1F1F1F1F1F1F1E1F1F78
:104950001F1F1F1F1E1B1A1714110D0A0705030224
:104960000000000000000000000000000000000047
:1049700001000000000001010000191C1E1F1F1F84
:104980001F1F1F1F1F1F1F1F1F1F1F1F1E1E1F1F39
:104990001F1F1F1F1E1C1B1815110E0B08050402DC
:1049A0000000000000000000000000000000000106
:1049B000010000000001010100000000DC490008C6
:1049C0000000002020000000E81B0008FC4900084F
:1049D00020000020304E0000F81B000800A24A040E
:1049E00001000000100000000000000000000000B6
:0C49F000000000000000000000000000BB
:04000005080000ED02
:00000001FF
